:020000040800F2
:1000000000500020B10F00089D0E0008A90E000846
:10001000AF0E0008B50E0008BB0E0008000000007F
:10002000000000000000000000000000C10E0008F9
:10003000CD0E000800000000D90E0008E50E0008F3
:10004000F90F0008F90F0008F90F0008F90F000870
:10005000F90F0008F90F0008F90F0008F90F000860
:10006000F90F0008F90F0008F90F0008F90F000850
:10007000F90F0008F90F0008F90F0008F90F000840
:10008000F90F0008F90F0008F90F0008F90F000830
:10009000F90F0008F90F0008F90F0008F90F000820
:1000A000F90F0008F90F0008F90F0008F90F000810
:1000B000F90F0008F90F0008F90F0008F90F000800
:1000C000F90F0008F90F0008F90F0008F90F0008F0
:1000D000F90F0008F90F0008F90F0008F90F0008E0
:1000E000F90F0008F90F0008F90F000800000000E0
:1000F0000000000000000000000000000000000000
:0C01000000000000000000005FF808F1A3
:10010C0010B5054C237833B9044B13B10448AFF345
:10011C0000800123237010BD70000020000000003F
:10012C00B42A000808B5034B1BB103490348AFF3CD
:10013C00008008BD0000000074000020B42A0008F4
:10014C0081F0004102E000BF83F0004330B54FEA7C
:10015C0041044FEA430594EA050F08BF90EA020FE9
:10016C001FBF54EA000C55EA020C7FEA645C7FEA7C
:10017C00655C00F0E2804FEA5454D4EB5555B8BF9F
:10018C006D420CDD2C4480EA020281EA030382EA10
:10019C00000083EA010180EA020281EA0303362DA2
:1001AC0088BF30BD11F0004F4FEA01314FF4801C75
:1001BC004CEA113102D0404261EB410113F0004F87
:1001CC004FEA03334CEA133302D0524263EB43033E
:1001DC0094EA050F00F0A780A4F10104D5F1200EDC
:1001EC000DDB02FA0EFC22FA05F2801841F1000137
:1001FC0003FA0EF2801843FA05F359410EE0A5F10B
:10020C0020050EF1200E012A03FA0EFC28BF4CF03B
:10021C00020C43FA05F3C01851EBE37101F00045F1
:10022C0007D54FF0000EDCF1000C7EEB00006EEBFE
:10023C000101B1F5801F1BD3B1F5001F0CD3490888
:10024C005FEA30004FEA3C0C04F101044FEA4452DF
:10025C0012F5800F80F09A80BCF1004F08BF5FEA66
:10026C00500C50F1000041EB045141EA050130BD46
:10027C005FEA4C0C404141EB010111F4801FA4F1E9
:10028C000104E9D191F0000F04BF01460020B1FA3E
:10029C0081F308BF2033A3F10B03B3F120020CDA76
:1002AC000C3208DD02F1140CC2F10C0201FA0CF054
:1002BC0021FA02F10CE002F11402D8BFC2F1200CB9
:1002CC0001FA02F120FA0CFCDCBF41EA0C0190406F
:1002DC00E41AA2BF01EB0451294330BD6FEA0404B8
:1002EC001F3C1CDA0C340EDC04F11404C4F12002A3
:1002FC0020FA04F001FA02F340EA030021FA04F3B5
:10030C0045EA030130BDC4F10C04C4F1200220FA0B
:10031C0002F001FA04F340EA0300294630BD21FA49
:10032C0004F0294630BD94F0000F83F4801306BF0F
:10033C0081F480110134013D4EE77FEA645C18BF03
:10034C007FEA655C29D094EA050F08BF90EA020F9A
:10035C0005D054EA000C04BF1946104630BD91EA92
:10036C00030F1EBF0021002030BD5FEA545C05D195
:10037C004000494128BF41F0004130BD14F58004D4
:10038C003CBF01F5801130BD01F0004545F0FE4148
:10039C0041F470014FF0000030BD7FEA645C1ABF7D
:1003AC00194610467FEA655C1CBF0B46024650EAB4
:1003BC00013406BF52EA033591EA030F41F40021E0
:1003CC0030BD00BF90F0000F04BF0021704730B566
:1003DC004FF4806404F132044FF000054FF000013B
:1003EC0050E700BF90F0000F04BF0021704730B5FC
:1003FC004FF4806404F1320410F0004548BF4042D1
:10040C004FF000013EE700BF42004FEAE2014FEA25
:10041C0031014FEA02701FBF12F07F4393F07F4F00
:10042C0081F06051704732F07F4208BF704793F003
:10043C007F4F04BF41F40021704730B54FF4607416
:10044C0001F0004521F000411CE700BF50EA010219
:10045C0008BF704730B54FF000050AE050EA0102C2
:10046C0008BF704730B511F0004502D5404261EB32
:10047C0041014FF4806404F132045FEA915C3FF473
:10048C00D8AE4FF003025FEADC0C18BF03325FEA10
:10049C00DC0C18BF033202EBDC02C2F1200300FAC1
:1004AC0003FC20FA02F001FA03FE40EA0E0021FAE6
:1004BC0002F11444BDE600BF70B54FF0FF0C4CF4D4
:1004CC00E06C1CEA11541DBF1CEA135594EA0C0F86
:1004DC0095EA0C0F00F0DEF82C4481EA030621EAC1
:1004EC004C5123EA4C5350EA013518BF52EA0335FC
:1004FC0041F4801143F4801338D0A0FB02CE4FF0AE
:10050C000005E1FB02E506F00042E0FB03E54FF0DD
:10051C000006E1FB03569CF0000F18BF4EF0010ED5
:10052C00A4F1FF04B6F5007F64F5407404D25FEAD1
:10053C004E0E6D4146EB060642EAC62141EA555184
:10054C004FEAC52040EA5E504FEACE2EB4F1FD0CC6
:10055C0088BFBCF5E06F1ED8BEF1004F08BF5FEA44
:10056C00500E50F1000041EB045170BD06F00046F6
:10057C0046EA010140EA020081EA0301B4EB5C04A3
:10058C00C2BFD4EB0C0541EA045170BD41F480119B
:10059C004FF0000E013C00F3AB8014F1360FDEBFC0
:1005AC00002001F0004170BDC4F10004203C35DA9C
:1005BC000C341BDC04F11404C4F1200500FA05F31F
:1005CC0020FA04F001FA05F240EA020001F00042C0
:1005DC0021F0004110EBD37021FA04F642EB060136
:1005EC005EEA430E08BF20EAD37070BDC4F10C0460
:1005FC00C4F1200500FA04F320FA05F001FA04F224
:10060C0040EA020001F0004110EBD37041F100010F
:10061C005EEA430E08BF20EAD37070BDC4F120051A
:10062C0000FA05F24EEA020E20FA04F301FA05F282
:10063C0043EA020321FA04F001F0004121FA04F22A
:10064C0020EA020000EBD3705EEA430E08BF20EAFA
:10065C00D37070BD94F0000F0FD101F00046400034
:10066C0041EB010111F4801F08BF013CF7D041EAB6
:10067C00060195F0000F18BF704703F000465200BA
:10068C0043EB030313F4801F08BF013DF7D043EA8B
:10069C000603704794EA0C0F0CEA135518BF95EA41
:1006AC000C0F0CD050EA410618BF52EA4306D1D1C8
:1006BC0081EA030101F000414FF0000070BD50EAE7
:1006CC00410606BF1046194652EA430619D094EA71
:1006DC000C0F02D150EA013613D195EA0C0F05D15B
:1006EC0052EA03361CBF104619460AD181EA0301AF
:1006FC0001F0004141F0FE4141F470014FF0000067
:10070C0070BD41F0FE4141F4780170BD70B54FF001
:10071C00FF0C4CF4E06C1CEA11541DBF1CEA135581
:10072C0094EA0C0F95EA0C0F00F0A7F8A4EB050463
:10073C0081EA030E52EA03354FEA013100F088805A
:10074C004FEA03334FF0805545EA131343EA126323
:10075C004FEA022245EA111545EA10654FEA0026D8
:10076C000EF000419D4208BF964244F1FD0404F591
:10077C00407402D25B084FEA3202B61A65EB0305ED
:10078C005B084FEA32024FF480104FF4002CB6EBAA
:10079C00020E75EB030E22BFB61A754640EA0C002A
:1007AC005B084FEA3202B6EB020E75EB030E22BF6A
:1007BC00B61A754640EA5C005B084FEA3202B6EBAB
:1007CC00020E75EB030E22BFB61A754640EA9C006A
:1007DC005B084FEA3202B6EB020E75EB030E22BF3A
:1007EC00B61A754640EADC0055EA060E18D04FEAF8
:1007FC00051545EA16754FEA06164FEAC30343EA98
:10080C0052734FEAC2025FEA1C1CC0D111F4801F64
:10081C000BD141EA00014FF000004FF0004CB6E75D
:10082C0011F4801F04BF01430020B4F1FD0C88BFFC
:10083C00BCF5E06F3FF6AFAEB5EB030C04BFB6EB07
:10084C00020C5FEA500C50F1000041EB045170BDFA
:10085C000EF0004E4EEA113114EB5C04C2BFD4EB27
:10086C000C0541EA045170BD41F480114FF0000EAB
:10087C00013C90E645EA060E8DE60CEA135594EA27
:10088C000C0F08BF95EA0C0F3FF43BAF94EA0C0F2A
:10089C000AD150EA01347FF434AF95EA0C0F7FF49F
:1008AC0025AF104619462CE795EA0C0F06D152EAF3
:1008BC0003353FF4FDAE1046194622E750EA4106D7
:1008CC0018BF52EA43067FF4C5AE50EA41047FF4E8
:1008DC000DAF52EA43057FF4EBAE12E74A0011D29A
:1008EC0012F5001211D20DD56FF47873B3EB62527E
:1008FC000ED44FEAC12343F0004343EA505323FA8A
:10090C0002F070474FF00000704750EA013002D1FE
:10091C004FF0FF3070474FF00000704780B400AFCD
:10092C00144BDB68134A23F08073D360114BDB68E4
:10093C00104A43F08073D3600F4B1B680E4A23F0B0
:10094C00010313600C4B1B680B4A43F0010313604B
:10095C00094B00225A6000BF00BF00BF064B5B680A
:10096C00002B01D0002300E001231846BD4680BCBB
:10097C00704700BFF0ED00E0001000E080B584B0DF
:10098C0000AF78600C4B5B68FB6001F0EFF902463E
:10099C000A4BA3FB02239B0C7A6802FB03F37B60DC
:1009AC0000BF054B5A68FB68D21A7B689A42F8D391
:1009BC0000BF1037BD4680BD001000E083DE1B4336
:1009CC0080B500AF084B02221A60074B01225A6017
:1009DC00054B00229A60044B0222DA60024903485C
:1009EC0000F06EFC00BF80BD9000002000080140AC
:1009FC0080B500AF074B02221A60064B00225A60EA
:100A0C00044B00229A600349034800F059FC00BFD4
:100A1C0080BD00BF900000200008014080B500AFF1
:100A2C00FFF7CEFF00220221094800F0BAFD4FF477
:100A3C00FA70FFF7A3FF01220221054800F0B1FD77
:100A4C001E20FFF79BFFFFF7D3FF00BF80BD00BF49
:100A5C000008014080B500AF2820FFF78FFF02216E
:100A6C000E4800F087FD0346002B0CD12820FFF721
:100A7C0085FF0221094800F07DFD0346002B02D0C2
:100A8C00074B01221A7000BF0221044800F072FDCE
:100A9C000346002BF8D100BF80BD00BF0008014009
:100AAC008C00002080B582B000AF0023BB7137E012
:100ABC0000BF02211E4800F05DFD0346002BF8D05C
:100ACC002820FFF75BFF0221194800F053FD034675
:100ADC00002B0ED1BB79C3F10703012202FA03F3F9
:100AEC005BB2DB435AB297F9073013405BB2FB7130
:100AFC000BE0BB79C3F10703012202FA03F35AB2EC
:100B0C0097F9073013435BB2FB7100BF0221084811
:100B1C0000F030FD0346002BF8D1BB790133BB71DB
:100B2C00BB79072BC4D9FB7918460837BD4680BD65
:100B3C000008014090B585B000AF00F059FA00F004
:100B4C009BF800F0FFF800F0D3F8FFF7E7FEFFF793
:100B5C0065FFFFF77FFFFFF7A5FF03461A463C4BE7
:100B6C001A70FFF79FFF03461A463A4B1A70FFF7AD
:100B7C0099FF03461A46384B1A70FFF793FF03464A
:100B8C001A46364B1A70344B1B781B021AB2334B75
:100B9C001B781BB213431BB29AB2314B1A802C4BED
:100BAC001B781B021AB22B4B1B781BB213431BB2C4
:100BBC009AB22C4B1A802A4B1B881846FFF712FC52
:100BCC004FF00002284BFFF7A1FD03460C461846D8
:100BDC002146FFF783FE03469AB2214B1A80214B24
:100BEC001B881846FFF7FEFB4FF000021E4BFFF769
:100BFC008DFD03460C4618462146FFF76FFE034653
:100C0C009AB2184B1A80164B1B881A463B4617494A
:100C1C00184601F037FB03469AB239464FF4FA7383
:100C2C00134801F040F90F4B1B881A463B461149FB
:100C3C00184601F027FB03469AB239464FF4FA7373
:100C4C000B4801F030F94FF47A7000F033FA7EE77C
:100C5C00AC000020F9000020F8000020FE0000206D
:100C6C00FA000020FC00002000002440CC2A0008E0
:100C7C00B8000020E02A000880B590B000AF07F162
:100C8C00180328220021184601F0F4FA3B1D00221B
:100C9C001A605A609A60DA601A610223BB61012300
:100CAC00BB621023FB6200237B6307F11803184619
:100CBC0000F090FC0346002B01D000F065F80F23E8
:100CCC007B600023BB600023FB6000233B6100239F
:100CDC007B613B1D0021184600F0FCFE0346002BF7
:100CEC0001D000F051F800BF4037BD4680BD000078
:100CFC0080B500AF114B124A1A60104B4FF4E13221
:100D0C005A600E4B00229A600C4B0022DA600B4B9F
:100D1C0000221A61094B0C225A61084B00229A617D
:100D2C00064B0022DA61054801F070F80346002BEF
:100D3C0001D000F029F800BF80BD00BFB800002032
:100D4C000038014080B483B000AF0E4B9B690D4A54
:100D5C0043F0200393610B4B9B6903F020037B60F2
:100D6C007B68084B9B69074A43F004039361054B6E
:100D7C009B6903F004033B603B6800BF0C37BD4626
:100D8C0080BC70470010024080B400AF00BFBD466D
:100D9C0080BC704780B485B000AF154B9B69144A7A
:100DAC0043F001039361124B9B6903F00103BB6099
:100DBC00BB680F4BDB690E4A43F08053D3610C4B7D
:100DCC00DB6903F080537B607B680A4B5B68FB60DC
:100DDC00FB6823F0E063FB60FB6843F00073FB608F
:100DEC00044AFB68536000BF1437BD4680BC704793
:100DFC00001002400000014080B588B000AF786060
:100E0C0007F1100300221A605A609A60DA607B685E
:100E1C001B681C4A934231D11B4B9B691A4A43F401
:100E2C0080439361184B9B6903F48043FB60FB6820
:100E3C00154B9B69144A43F004039361124B9B6955
:100E4C0003F00403BB60BB684FF400733B610223E7
:100E5C007B610323FB6107F1100319460B4800F07B
:100E6C002FFA4FF480633B6100237B610023BB614D
:100E7C0007F110031946054800F022FA00BF20378D
:100E8C00BD4680BD00380140001002400008014002
:100E9C0080B400AF00BFBD4680BC704780B400AFCB
:100EAC00FEE780B400AFFEE780B400AFFEE780B48D
:100EBC0000AFFEE780B400AF00BFBD4680BC7047FA
:100ECC0080B400AF00BFBD4680BC704780B400AF9B
:100EDC0000BFBD4680BC704780B500AF00F0CEF8B7
:100EEC0000BF80BD80B584B000AF7860114B1B682B
:100EFC00002B02D10F4B104A1A600E4B1B68FB6083
:100F0C000C4B1A687B6813446A46934207D901F06C
:100F1C0087F902460C2313604FF0FF3306E0054BB4
:100F2C001A687B681344034A1360FB681846103731
:100F3C00BD4680BDA00000200801002080B400AF99
:100F4C00154B1B68144A43F001031360124B5A688B
:100F5C001149124B13404B600F4B1B680E4A23F088
:100F6C00847323F4803313600B4B1B680A4A23F4FD
:100F7C0080231360084B5B68074A23F4FE0353601D
:100F8C00054B4FF41F029A60054B4FF000629A60BC
:100F9C0000BFBD4680BC7047001002400000FFF847
:100FAC0000ED00E0002103E00B4B5B584350043193
:100FBC000A480B4B42189A42F6D30A4A02E0002325
:100FCC0042F8043B084B9A42F9D3FFF7B7FF01F004
:100FDC002DF9FFF7AFFD70475C2B000800000020D7
:100FEC00700000207000002008010020FEE70000C7
:100FFC0080B500AF084B1B68074A43F01003136021
:10100C00032000F029F9002000F008F8FFF7C2FED9
:10101C000023184680BD00BF0020024080B582B07E
:10102C0000AF7860124B1A68124B1B7819464FF4BC
:10103C007A73B3FBF1F3B2FBF3F3184600F033F918
:10104C000346002B01D001230EE07B680F2B0AD83E
:10105C00002279684FF0FF3000F009F9064A7B68EE
:10106C001360002300E0012318460837BD4680BDFD
:10107C0000000020080000200400002080B400AF15
:10108C00054B1B781A46054B1B681344034A136027
:10109C0000BFBD4680BC7047080000200001002046
:1010AC0080B400AF024B1B681846BD4680BC70472D
:1010BC000001002080B584B000AF7860FFF7F0FF2E
:1010CC00B8607B68FB60FB68B3F1FF3F05D0094B50
:1010DC001B781A46FB681344FB6000BFFFF7E0FF68
:1010EC000246BB68D31AFA689A42F7D800BF103789
:1010FC00BD4680BD0800002080B485B000AF78608C
:10110C007B6803F00703FB600C4BDB68BB60BA68C1
:10111C004FF6FF031340BB60FB681A02BB68134316
:10112C0043F0BF6343F40033BB60044ABB68D36035
:10113C0000BF1437BD4680BC704700BF00ED00E017
:10114C0080B400AF044BDB681B0A03F0070318469E
:10115C00BD4680BC704700BF00ED00E080B483B09A
:10116C0000AF03463960FB7197F90730002B0ADB9F
:10117C003B68DAB20C4997F907301201D2B20B4432
:10118C0083F800230AE03B68DAB20849FB7903F0E4
:10119C000F03043B1201D2B20B441A7600BF0C377A
:1011AC00BD4680BC704700BF00E100E000ED00E0F0
:1011BC0080B489B000AFF860B9607A60FB6803F066
:1011CC000703FB61FB69C3F10703042B28BF04234E
:1011DC00BB61FB690433062B02D9FB69033B00E0BE
:1011EC0000237B614FF0FF32BB6902FA03F3DA4351
:1011FC00BB681A407B699A404FF0FF317B6901FA5A
:10120C0003F3D9437B680B40134318462437BD4680
:10121C0080BC704780B582B000AF78607B68013BC2
:10122C00B3F1807F01D301230FE00A4A7B68013BB5
:10123C0053600F214FF0FF30FFF790FF054B00225A
:10124C009A60044B07221A60002318460837BD46E3
:10125C0080BD00BF10E000E080B582B000AF7860C8
:10126C007868FFF749FF00BF0837BD4680BD80B5E1
:10127C0086B000AF0346B9607A60FB7300237B61D4
:10128C00FFF75EFF78617A68B9687869FFF790FFBD
:10129C00024697F90F3011461846FFF75FFF00BF63
:1012AC001837BD4680BD80B582B000AF78607868D5
:1012BC00FFF7B0FF034618460837BD4680BD000057
:1012CC0080B48BB000AF7860396000237B62002360
:1012DC003B6227E101227B6A02FA03F3FB613B6864
:1012EC001B68FA691340BB61BA69FB699A4240F00A
:1012FC0016813B685B68122B34D0122B0DD8022B55
:10130C002BD0022B04D8002B31D0012B1CD048E061
:10131C00032B43D0112B1BD043E0894A934226D098
:10132C00874A934206D8874A934220D0864A9342F2
:10133C001DD036E0854A934219D0854A934216D087
:10134C00844A934213D02CE03B68DB683B6228E074
:10135C003B68DB6804333B6223E03B68DB680833A3
:10136C003B621EE03B68DB680C333B6219E03B6878
:10137C009B68002B02D104233B6212E03B689B6804
:10138C00012B05D108233B627B68FA691A6108E0DE
:10139C0008233B627B68FA695A6102E000233B62D6
:1013AC0000BFBB69FF2B01D87B6801E07B6804336D
:1013BC007B61BB69FF2B02D87B6A9B0002E07B6AD6
:1013CC00083B9B003B617B691A680F213B6901FA62
:1013DC0003F3DB431A40396A3B6901FA03F31A43FE
:1013EC007B691A603B685B6803F08053002B00F04C
:1013FC009680594B9B69584A43F001039361564BB5
:10140C009B6903F00103BB60BB68544A7B6A9B0871
:10141C00023352F82330FB607B6A03F003039B001A
:10142C000F2202FA03F3DB43FA681340FB607B687C
:10143C004B4A934213D07B684A4A93420DD07B6847
:10144C00494A934207D07B68484A934201D103230F
:10145C0006E0042304E0022302E0012300E0002361
:10146C007A6A02F0030292009340FA681343FB601D
:10147C003A497B6A9B080233FA6841F823203B689F
:10148C005B6803F48033002B06D0394B1A6838495B
:10149C00BB6913430B6006E0354B1A68BB69DB4331
:1014AC00334913400B603B685B6803F40033002B3B
:1014BC0006D02F4B5A682E49BB6913434B6006E08C
:1014CC002B4B5A68BB69DB43294913404B603B6883
:1014DC005B6803F48013002B06D0254B9A682449D3
:1014EC00BB6913438B6006E0214B9A68BB69DB43F5
:1014FC001F4913408B603B685B6803F40013002B9F
:10150C0006D01B4BDA681A49BB691343CB6006E063
:10151C00174BDA68BB69DB4315491340CB607B6A18
:10152C0001337B623B681A687B6A22FA03F3002B57
:10153C007FF4D0AE00BF2C37BD4680BC704700BFD7
:10154C0000002110000011100000121000003110DA
:10155C000000321000002210001002400000014078
:10156C0000080140000C0140001001400014014033
:10157C000004014080B485B000AF78600B467B80DE
:10158C007B689A687B881340002B02D00123FB7385
:10159C0001E00023FB73FB7B18461437BD4680BC6F
:1015AC00704780B483B000AF78600B467B801346E5
:1015BC007B707B78002B03D07A887B681A6103E000
:1015CC007B881A047B681A6100BF0C37BD4680BC4F
:1015DC007047000080B586B000AF78607B68002B48
:1015EC0001D101236CE27B681B6803F00103002B23
:1015FC0000F08780924B5B6803F00C03042B0CD03B
:10160C008F4B5B6803F00C03082B12D18C4B5B687F
:10161C0003F48033B3F5803F0BD1894B1B6803F483
:10162C000033002B6CD07B685B68002B68D10123E6
:10163C0046E27B685B68B3F5803F06D1804B1B6844
:10164C007F4A43F4803313602EE07B685B68002B89
:10165C000CD17B4B1B687A4A23F480331360784B94
:10166C001B68774A23F4802313601DE07B685B685A
:10167C00B3F5A02F0CD1724B1B68714A43F4802335
:10168C0013606F4B1B686E4A43F4803313600BE09E
:10169C006B4B1B686A4A23F480331360684B1B68DE
:1016AC00674A23F4802313607B685B68002B13D09C
:1016BC00FFF7F6FC386108E0FFF7F2FC02463B69E5
:1016CC00D31A642B01D90323FAE15D4B1B6803F495
:1016DC000033002BF0D014E0FFF7E2FC386108E097
:1016EC00FFF7DEFC02463B69D31A642B01D90323B6
:1016FC00E6E1534B1B6803F40033002BF0D100E000
:10170C0000BF7B681B6803F00203002B63D04C4BBB
:10171C005B6803F00C03002B0BD0494B5B6803F0A8
:10172C000C03082B1CD1464B5B6803F48033002B55
:10173C0016D1434B1B6803F00203002B05D07B68CA
:10174C001B69012B01D00123BAE13D4B1B6823F02F
:10175C00F8027B685B69DB00394913430B603AE0A4
:10176C007B681B69002B20D0364B01221A60FFF7D7
:10177C0097FC386108E0FFF793FC02463B69D31AEB
:10178C00022B01D903239BE12D4B1B6803F00203B1
:10179C00002BF0D02A4B1B6823F0F8027B685B69A6
:1017AC00DB00274913430B6015E0264B00221A601F
:1017BC00FFF776FC386108E0FFF772FC02463B69E4
:1017CC00D31A022B01D903237AE11D4B1B6803F0BA
:1017DC000203002BF0D17B681B6803F00803002B7D
:1017EC003AD07B689B69002B19D0174B01221A60E9
:1017FC00FFF756FC386108E0FFF752FC02463B69E4
:10180C00D31A022B01D903235AE10D4B5B6A03F067
:10181C000203002BF0D0012000F0DAFA1CE00A4B96
:10182C0000221A60FFF73CFC38610FE0FFF738FC30
:10183C0002463B69D31A022B08D9032340E100BFAF
:10184C000010024000004242800442429E4B5B6A00
:10185C0003F00203002BE9D17B681B6803F004033F
:10186C00002B00F0A6800023FB75974BDB6903F07F
:10187C008053002B0DD1944BDB69934A43F080537A
:10188C00D361914BDB6903F08053BB60BB680123D0
:10189C00FB758E4B1B6803F48073002B18D18B4B9C
:1018AC001B688A4A43F480731360FFF7F9FB3861B5
:1018BC0008E0FFF7F5FB02463B69D31A642B01D90C
:1018CC000323FDE0814B1B6803F48073002BF0D0E5
:1018DC007B68DB68012B06D17B4B1B6A7A4A43F091
:1018EC00010313622DE07B68DB68002B0CD1764B77
:1018FC001B6A754A23F001031362734B1B6A724A0D
:10190C0023F0040313621CE07B68DB68052B0CD10D
:10191C006D4B1B6A6C4A43F0040313626A4B1B6ADF
:10192C00694A43F0010313620BE0674B1B6A664A7A
:10193C0023F001031362644B1B6A634A23F0040314
:10194C0013627B68DB68002B15D0FFF7A9FB3861AD
:10195C000AE0FFF7A5FB02463B69D31A41F2883235
:10196C00934201D90323ABE0574B1B6A03F00203EC
:10197C00002BEED014E0FFF793FB38610AE0FFF781
:10198C008FFB02463B69D31A41F28832934201D94C
:10199C00032395E04C4B1B6A03F00203002BEED1A2
:1019AC00FB7D012B05D1484BDB69474A23F0805363
:1019BC00D3617B68DB69002B00F08180424B5B6854
:1019CC0003F00C03082B61D07B68DB69022B46D13A
:1019DC003F4B00221A60FFF763FB386108E0FFF70A
:1019EC005FFB02463B69D31A022B01D9032367E044
:1019FC00354B1B6803F00073002BF0D17B681B6A1E
:101A0C00B3F5803F08D1304B5B6823F400327B6820
:101A1C009B682D4913434B602B4B5B6823F474126A
:101A2C007B68196A7B685B6A0B43274913434B60DD
:101A3C00274B01221A60FFF733FB386108E0FFF7F0
:101A4C002FFB02463B69D31A022B01D9032337E043
:101A5C001D4B1B6803F00073002BF0D02FE01C4BC8
:101A6C0000221A60FFF71CFB386108E0FFF718FB37
:101A7C0002463B69D31A022B01D9032320E0124BF7
:101A8C001B6803F00073002BF0D118E07B68DB6956
:101A9C00012B01D1012313E00B4B5B68FB60FB684E
:101AAC0003F480327B681B6A9A4206D1FB6803F40C
:101ABC0070127B685B6A9A4201D0012300E000231C
:101ACC0018461837BD4680BD00100240007000401B
:101ADC006000424280B584B000AF786039607B68AA
:101AEC00002B01D10123D0E06A4B1B6803F00703E4
:101AFC003A689A4210D9674B1B6823F00702654974
:101B0C003B6813430B60634B1B6803F007033A6895
:101B1C009A4201D00123B8E07B681B6803F00203F2
:101B2C00002B20D07B681B6803F00403002B05D02E
:101B3C00594B5B68584A43F4E06353607B681B68FD
:101B4C0003F00803002B05D0534B5B68524A43F457
:101B5C0060535360504B5B6823F0F0027B689B68CA
:101B6C004D4913434B607B681B6803F00103002B4A
:101B7C0040D07B685B68012B07D1474B1B6803F493
:101B8C000033002B15D101237FE07B685B68022BAF
:101B9C0007D1414B1B6803F00073002B09D10123C3
:101BAC0073E03D4B1B6803F00203002B01D10123B2
:101BBC006BE0394B5B6823F003027B685B6836494A
:101BCC0013434B60FFF76CFAF8600AE0FFF768FA12
:101BDC000246FB68D31A41F28832934201D903239F
:101BEC0053E02D4B5B6803F00C027B685B689B0039
:101BFC009A42EBD1274B1B6803F007033A689A42D1
:101C0C0010D2244B1B6823F0070222493B68134374
:101C1C000B60204B1B6803F007033A689A4201D013
:101C2C00012332E07B681B6803F00403002B08D00F
:101C3C00194B5B6823F4E0627B68DB68164913433D
:101C4C004B607B681B6803F00803002B09D0124B18
:101C5C005B6823F460527B681B69DB000E491343FD
:101C6C004B6000F021F801460B4B5B681B0903F03D
:101C7C000F030A4AD35C21FA03F3094A1360094B98
:101C8C001B681846FFF7CAF9002318461037BD46E3
:101C9C0080BD00BF0020024000100240082B00084D
:101CAC00000000200400002090B48AB000AF2A4B42
:101CBC003C1D0FCB84E80F00284B1B883B80002376
:101CCC00FB610023BB6100237B6200237B6100234B
:101CDC003B62234B5B68FB61FB6903F00C03042B39
:101CEC0002D0082B03D02DE01E4B3B622DE0FB698C
:101CFC009B0C03F00F0307F12802134413F8243C48
:101D0C007B61FB6903F48033002B13D0144B5B68AD
:101D1C005B0C03F0010307F12802134413F8283C71
:101D2C00BB617B690F4A02FB03F2BB69B2FBF3F3A5
:101D3C007B6204E07B690C4A02FB03F37B627B6AE7
:101D4C003B6202E0074B3B6200BF3B6A18462837F8
:101D5C00BD4690BC704700BFF42A0008042B000855
:101D6C000010024000127A0000093D0080B400AF60
:101D7C00024B1B681846BD4680BC70470000002013
:101D8C0080B500AFFFF7F2FF0146054B5B681B0AFD
:101D9C0003F00703034AD35C21FA03F3184680BD12
:101DAC0000100240182B000880B500AFFFF7DEFFD3
:101DBC000146054B5B68DB0A03F00703034AD35C5F
:101DCC0021FA03F3184680BD00100240182B0008BE
:101DDC0080B485B000AF78600A4B1B680A4AA2FB3E
:101DEC0003235B0A7A6802FB03F3FB6000BFFB680A
:101DFC005A1EFA60002BF9D100BF1437BD4680BCC7
:101E0C00704700BF00000020D34D621080B582B037
:101E1C0000AF78607B68002B01D101233FE07B6829
:101E2C0093F83930DBB2002B06D17B68002283F8A3
:101E3C0038207868FEF7E0FF7B68242283F839208D
:101E4C007B681B68DA687B681B6822F40052DA60D6
:101E5C00786800F00BF97B681B681A697B681B6853
:101E6C0022F490421A617B681B685A697B681B6874
:101E7C0022F02A025A617B681B68DA687B681B684F
:101E8C0042F40052DA607B680022DA637B6820221D
:101E9C0083F839207B68202283F83A2000231846E7
:101EAC000837BD4680BD80B588B002AFF860B96018
:101EBC003B601346FB8000237B61FB6893F8393051
:101ECC00DBB2202B40F08380BB68002B02D0FB8858
:101EDC00002B01D101237BE0FB6893F83830012BF8
:101EEC0001D1022374E0FB68012283F83820FB68DF
:101EFC000022DA63FB68212283F83920FFF7D0F83F
:101F0C007861FB68FA889A84FB68FA88DA8442E084
:101F1C00FB68DB8C9BB2013B9AB2FB68DA84FB68F2
:101F2C009B68B3F5805F22D13B6800937B690022EC
:101F3C008021F86800F050F80346002B01D00323F1
:101F4C0046E0BB683B613B691B881A46FB681B6813
:101F5C00C2F308025A60FB681B69002B03D1BB68F3
:101F6C000233BB6017E0BB680133BB6013E03B6816
:101F7C0000937B6900228021F86800F02DF803465D
:101F8C00002B01D0032323E0BB685A1CBA601A78DB
:101F9C00FB681B685A60FB68DB8C9BB2002BB7D1CB
:101FAC003B6800937B6900224021F86800F014F82C
:101FBC000346002B01D003230AE0FB68202283F8A0
:101FCC003920FB68002283F83820002300E002232C
:101FDC0018461837BD4680BD80B584B000AFF86098
:101FEC00B9603B601346FB712CE0BB69B3F1FF3F5A
:101FFC0028D0BB69002B07D0FFF752F802463B688C
:10200C00D31ABA699A421DD2FB681B68DA68FB685E
:10201C001B6822F4D072DA60FB681B685A69FB6893
:10202C001B6822F001025A61FB68202283F83920D8
:10203C00FB68202283F83A20FB68002283F83820C2
:10204C0003230FE0FB681B681A68BB681340BA686F
:10205C009A420CBF01230023DBB21A46FB799A4249
:10206C00C3D0002318461037BD4680BD80B584B060
:10207C0000AF78607B681B681B6923F440517B6858
:10208C00DA687B681B680A431A617B689A687B680C
:10209C001B691A437B685B691343FB607B681B6895
:1020AC00DB6823F4B05323F00C037A681268F968E8
:1020BC000B43D3607B681B685B6923F440717B68BE
:1020CC009A697B681B680A435A617B681B68524A91
:1020DC0093424ED1FFF768FEB860BA6813469B0076
:1020EC0013449A001A447B685B689B00B2FBF3F3C1
:1020FC004A4AA2FB03235B091901BA6813469B00E9
:10210C0013449A001A447B685B689B00B2FBF3F2A1
:10211C00424BA3FB02035B09642000FB03F3D31ABD
:10212C001B0132333D4AA2FB03235B0903F0F0038E
:10213C001944BA6813469B0013449A001A447B68EE
:10214C005B689B00B2FBF3F2344BA3FB02035B090D
:10215C00642000FB03F3D31A1B0132332F4AA2FB7A
:10216C0003235B0903F00F027B681B680A449A6027
:10217C004DE0FFF705FEB860BA6813469B001344A8
:10218C009A001A447B685B689B00B2FBF3F3234A0A
:10219C00A2FB03235B091901BA6813469B00134485
:1021AC009A001A447B685B689B00B2FBF3F21B4BF2
:1021BC00A3FB02035B09642000FB03F3D31A1B018E
:1021CC003233164AA2FB03235B0903F0F0031944D4
:1021DC00BA6813469B0013449A001A447B685B68E8
:1021EC009B00B2FBF3F20D4BA3FB02035B096420D3
:1021FC0000FB03F3D31A1B013233084AA2FB03235F
:10220C005B0903F00F027B681B680A449A6000BFED
:10221C001037BD4680BD00BF003801401F85EB5113
:10222C00014B1868704700BF0C00002070B50025EA
:10223C000C4E0D4CA41BA410A54209D100F034FC8B
:10224C0000250A4E0A4CA41BA410A54205D170BD52
:10225C0056F8253098470135EEE756F82530984763
:10226C000135F2E7542B0008542B0008542B0008BE
:10227C00582B000803460244934200D1704703F8E0
:10228C00011BF9E70EB46FF0004100B59CB01DAB1B
:10229C0002900690079104910848094953F8042BC1
:1022AC000591006802A9019300F066F80022029BD8
:1022BC001A701CB05DF804EB03B070470C000020E2
:1022CC000802FFFF2DE9F0478E6882469E420C46BD
:1022DC009046994637D88A8912F4906F31D00223F0
:1022EC00256809696F1A656905EB450595FBF3F5DA
:1022FC0009F101033B449D4238BF1D46530530D5BF
:10230C00294600F037FB064650B90C234FF0FF303E
:10231C00CAF80030A38943F04003A381BDE8F087DD
:10232C003A46216900F0B6FAA38923F4906343F08E
:10233C008003A38126613E4426604E466561ED1BF9
:10234C00A5604E4500D94E4632464146206800F005
:10235C00ACFAA36800209B1BA36023681E44266074
:10236C00DCE72A4600F060FB06460028E2D1216932
:10237C00504600F0B3FAC8E72DE9F04F1D468B89A3
:10238C009DB01F0680460C4616460FD50B696BB9DF
:10239C00402100F0EFFA2060206128B90C23C8F826
:1023AC0000304FF0FF30C8E04023636100230993F5
:1023BC0020238DF8293030234FF0010B8DF82A3073
:1023CC00039537463D4615F8013B0BB1252B3ED105
:1023DC00B7EB060A0BD05346324621464046FFF770
:1023EC0071FF013000F0A480099B534409933B78A2
:1023FC00002B00F09D8000234FF0FF32CDE9052328
:10240C00049307938DF853301A932F46052217F82F
:10241C00011B504800F030FA049BD0B9D90644BFD8
:10242C0020228DF853201A0744BF2B228DF85320FD
:10243C002A782A2A15D02F4600200A25079A3946D1
:10244C0011F8013B303B092B4DD9B8B10FE02F46A9
:10245C00B8E7404A3D46801A0BFA00F01843049046
:10246C00D3E7039A111D12680391002A01DB07922E
:10247C0004E0524243F00203079204933B782E2B64
:10248C000CD17B782A2B33D1039B02371A1D1B6886
:10249C000392002BB8BF4FF0FF3305932E4D032250
:1024AC003978284600F0E8F938B14023401B03FA8C
:1024BC0000F0049B01370343049339780622274824
:1024CC007E1C8DF8281000F0D7F9002838D0244B4A
:1024DC0013BB039B073323F0070308330393099BB8
:1024EC004B4409936DE705FB023201200F46A6E72A
:1024FC0000230A25194601370593384610F8012B9D
:10250C00303A092A03D9002BC8D00591C6E705FB40
:10251C00012101230746F0E703AB00932246114B40
:10252C0004A94046AFF30080B0F1FF3F8146D6D1FD
:10253C00A3895B063FF535AF09981DB0BDE8F08F58
:10254C0003AB00932246074B04A9404600F082F8E7
:10255C00EAE700BF202B0008262B00082A2B0008D6
:10256C0000000000D12200082DE9F04791461F46DB
:10257C008A680B6906469342B8BF1346C9F8003007
:10258C0091F843200C46DDF8208012B10133C9F8D4
:10259C0000302368990642BFD9F800300233C9F8DD
:1025AC000030256815F0060507D104F1190AE36817
:1025BC00D9F800209B1AAB4229DC94F843302268EE
:1025CC00003318BF012392062ED404F1430239467E
:1025DC003046C047013021D02368E56803F006037C
:1025EC00042B18BF0025D9F800204FF0000908BFB4
:1025FC00AD1AA368226908BF25EAE5759342C4BFEA
:10260C009B1AED181A344D451AD1002008E001230D
:10261C00524639463046C047013003D14FF0FF30A7
:10262C00BDE8F0870135C2E73020E11881F843009E
:10263C005A1C94F845102244023382F84310C4E724
:10264C000123224639463046C0470130E6D009F115
:10265C000109D8E72DE9F04301F1430C0C46097E42
:10266C0085B06E291746064698460C9A00F0B38042
:10267C0022D8632936D00AD8002900F0B98058290D
:10268C0000F0838004F1420584F8421032E06429A2
:10269C0001D06929F6D120681368050603F10401FD
:1026AC002AD51B681160002B03DA2D225B4284F8BB
:1026BC0043206F480A2239E0732900F09D8008D826
:1026CC006F2920D07029DDD1236843F020032360CB
:1026DC0003E0752917D07829D4D17823654884F87C
:1026EC00453055E0136804F14205191D1B68116053
:1026FC0084F8423001238CE01B6810F0400F11600D
:10270C0018BF1BB2CFE713682568181D1060280688
:10271C0001D51B6802E06806FBD51B886F2914BF26
:10272C000A2208225248002184F843106568002DC3
:10273C00A560C0F29580216821F004012160002B76
:10274C003DD1002D40F08E806546082A0BD12368C0
:10275C00DB0708D5236962689A42DEBF302305F88F
:10276C00013C05F1FF35ACEB05032361CDF800808E
:10277C003B4603AA21463046FFF7F6FE01304DD109
:10278C004FF0FF3005B0BDE8F083394884F84510B0
:10279C00136821681D1D1B6815600A060BD5CA0736
:1027AC0044BF41F0200121601BB9226822F02002B5
:1027BC0022601022B7E74D0648BF9BB2EFE7654693
:1027CC00B3FBF2F102FB1133C35C05F8013D0B4680
:1027DC000029F5D1B9E713682568181D61691060E7
:1027EC0028061B6801D5196002E06A06FBD5198022
:1027FC00002365462361B9E71368191D11601D6834
:10280C0062680021284600F037F808B1401B606070
:10281C0063682361002384F84330A7E723692A46C1
:10282C0039463046C0470130AAD023689B0713D4E1
:10283C00E068039B9842B8BF1846A3E701234A46B9
:10284C0039463046C04701309AD00135E368039AC7
:10285C009B1AAB42F2DCEBE7002504F11909F5E712
:10286C00002BACD1037804F1420584F842306CE7BC
:10287C00312B0008422B000810B5C9B2024490421B
:10288C00034601D1002303E01C7801308C42F6D1C1
:10289C00184610BD10B5431E0A44914200D110BD1C
:1028AC0011F8014B03F8014FF7E7884210B501EB23
:1028BC00020307D8421E99420AD011F8014B02F8C4
:1028CC00014FF8E78342F5D98118D21AD34200D1CF
:1028DC0010BD13F8014D01F8014DF7E738B5054669
:1028EC00002943D051F8043C0C1F002BB8BFE4184E
:1028FC0000F0D0F81E4A1368104633B963601460B8
:10290C002846BDE8384000F0C6B8A3420BD9216870
:10291C006218934201BF1A685B68521822606360A8
:10292C000460EDE713465A680AB1A242FAD9196855
:10293C005818A0420BD120680144581882421960E3
:10294C00DED110685268014419605A60D8E702D988
:10295C000C232B60D4E7206821188A4201BF116830
:10296C0052680918216062605C60C9E738BD00BF1D
:10297C00A400002070B5CD1C25F0030508350C2DE6
:10298C0038BF0C25002D064601DBA94203D90C23C8
:10299C003360002070BD00F07DF8214A1468214698
:1029AC0091B9204C23681BB9304600F063F82060C5
:1029BC002946304600F05EF8431C24D10C233046E7
:1029CC00336000F068F8E4E70B685B1B18D40B2B42
:1029DC000FD90B60CC18CD50304600F05CF804F1E8
:1029EC000B00231D20F00700C31AD3D05A42E2502B
:1029FC00D0E74B688C4216BF636013600C46EBE764
:102A0C000C464968CCE7C41C24F00304A04205D052
:102A1C00211A304600F02EF80130CFD02560DBE7CC
:102A2C00A4000020A8000020F8B5074614460E4666
:102A3C0021B9BDE8F8401146FFF79CBF22B9FFF75A
:102A4C004DFF25462846F8BD00F026F8A0420FD2CF
:102A5C0021463846FFF78EFF05460028F2D0314656
:102A6C002246FFF717FF31463846FFF737FFE9E7F5
:102A7C003546E7E738B50023054C05460846236084
:102A8C00FEF730FA431C02D1236803B12B6038BD2A
:102A9C00040100207047704751F8043C181F002BAC
:102AAC00BCBF0B58C0187047F8B500BFF8BC08BCC9
:102ABC009E467047F8B500BFF8BC08BC9E467047F0
:102ACC0054656D706572617475726520697320252B
:102ADC0064200A0048756D696469747920697320F3
:102AEC002564200A000000000203040506070809FB
:102AFC000A0B0C0D0E0F101001020000000000005C
:102B0C000000000001020304060708090000000091
:102B1C0001020304232D302B2000686C4C006566E9
:102B2C006745464700303132333435363738394112
:102B3C004243444546003031323334353637383928
:082B4C0061626364656600002C
:042B54003101000843
:042B58000D01000863
:102B5C000024F40010000000010000001000002010
:102B6C000000000000000000000000000000000059
:102B7C000000000000000000000000000000000049
:102B8C000000000000000000000000000000000039
:102B9C000000000000000000000000000000000029
:102BAC000000000000000000000000000000000019
:102BBC000000000000000000000000000000000009
:0400000508000FB12F
:00000001FF
